:100000000C9456000C9460000C9460000C946000FA
:100010000C9460000C9460000C9460000C946000E0
:100020000C9460000C9460000C9460000C946000D0
:100030000C9460000C9460000C9460000C946000C0
:100040000C9460000C9460000C9460000C946000B0
:100050000C9460000C9460000C9460000C946000A0
:100060000C9460000C9460000C9460000C94600090
:100070000C9460000C9460000C9460000C94600080
:100080000C9460000C9460000C9460000C94600070
:100090000C9460000C9460000C9460000C94600060
:1000A0000C9460000C9460000C94600011241FBE3E
:1000B000CFEFDAE0DEBFCDBF0E9462000C9480007B
:1000C0000C94000080E88093610081E080936100DF
:1000D00084B18C6884B980B38F7980BB7D9B02C06A
:1000E0002B9A2A987E9B02C02A9A2B981F9B02C0AB
:1000F00085B185B9499BF2CF85B18C6085B9EECFCA
:04010000F894FFCFA1
:00000001FF
